{
  "_format": "hh-sol-artifact-1",
  "contractName": "Greeter",
  "sourceName": "contracts/Greeter.sol",
  "abi": [
    {
      "inputs": [
        {
          "internalType": "string",
          "name": "_greeting",
          "type": "string"
        }
      ],
      "stateMutability": "nonpayable",
      "type": "constructor"
    },
    {
      "inputs": [],
      "name": "deposit",
      "outputs": [],
      "stateMutability": "payable",
      "type": "function"
    },
    {
      "inputs": [],
      "name": "getBalance",
      "outputs": [
        {
          "internalType": "uint256",
          "name": "",
          "type": "uint256"
        }
      ],
      "stateMutability": "view",
      "type": "function"
    },
    {
      "inputs": [],
      "name": "withdraw",
      "outputs": [],
      "stateMutability": "nonpayable",
      "type": "function"
    }
  ],
  "bytecode": "0x60806040523480156200001157600080fd5b5060405162000a4f38038062000a4f833981810160405281019062000037919062000278565b6200006760405180606001604052806022815260200162000a2d60229139826200008760201b620001801760201c565b80600090805190602001906200007f92919062000156565b5050620004c5565b620001298282604051602401620000a0929190620002fe565b6040516020818303038152906040527f4b5c4277000000000000000000000000000000000000000000000000000000007bffffffffffffffffffffffffffffffffffffffffffffffffffffffff19166020820180517bffffffffffffffffffffffffffffffffffffffffffffffffffffffff83818316178352505050506200012d60201b60201c565b5050565b60008151905060006a636f6e736f6c652e6c6f679050602083016000808483855afa5050505050565b8280546200016490620003ea565b90600052602060002090601f016020900481019282620001885760008555620001d4565b82601f10620001a357805160ff1916838001178555620001d4565b82800160010185558215620001d4579182015b82811115620001d3578251825591602001919060010190620001b6565b5b509050620001e39190620001e7565b5090565b5b8082111562000202576000816000905550600101620001e8565b5090565b60006200021d620002178462000362565b62000339565b9050828152602081018484840111156200023657600080fd5b62000243848285620003b4565b509392505050565b600082601f8301126200025d57600080fd5b81516200026f84826020860162000206565b91505092915050565b6000602082840312156200028b57600080fd5b600082015167ffffffffffffffff811115620002a657600080fd5b620002b4848285016200024b565b91505092915050565b6000620002ca8262000398565b620002d68185620003a3565b9350620002e8818560208601620003b4565b620002f381620004b4565b840191505092915050565b600060408201905081810360008301526200031a8185620002bd565b90508181036020830152620003308184620002bd565b90509392505050565b60006200034562000358565b905062000353828262000420565b919050565b6000604051905090565b600067ffffffffffffffff82111562000380576200037f62000485565b5b6200038b82620004b4565b9050602081019050919050565b600081519050919050565b600082825260208201905092915050565b60005b83811015620003d4578082015181840152602081019050620003b7565b83811115620003e4576000848401525b50505050565b600060028204905060018216806200040357607f821691505b602082108114156200041a576200041962000456565b5b50919050565b6200042b82620004b4565b810181811067ffffffffffffffff821117156200044d576200044c62000485565b5b80604052505050565b7f4e487b7100000000000000000000000000000000000000000000000000000000600052602260045260246000fd5b7f4e487b7100000000000000000000000000000000000000000000000000000000600052604160045260246000fd5b6000601f19601f8301169050919050565b61055880620004d56000396000f3fe6080604052600436106100345760003560e01c806312065fe0146100395780633ccfd60b14610064578063d0e30db01461007b575b600080fd5b34801561004557600080fd5b5061004e610085565b60405161005b9190610418565b60405180910390f35b34801561007057600080fd5b50610079610092565b005b6100836100e1565b005b6000804790508091505090565b60004790503373ffffffffffffffffffffffffffffffffffffffff166108fc829081150290604051600060405180830381858888f193505050501580156100dd573d6000803e3d6000fd5b5050565b6100ea3461021c565b34600160003373ffffffffffffffffffffffffffffffffffffffff1673ffffffffffffffffffffffffffffffffffffffff1681526020019081526020016000206000828254610139919061044f565b9250508190555061017e6040518060400160405280601181526020017f444944205745205041535320544849533f0000000000000000000000000000008152506102b5565b565b61021882826040516024016101969291906103e1565b6040516020818303038152906040527f4b5c4277000000000000000000000000000000000000000000000000000000007bffffffffffffffffffffffffffffffffffffffffffffffffffffffff19166020820180517bffffffffffffffffffffffffffffffffffffffffffffffffffffffff838183161783525050505061034e565b5050565b6102b2816040516024016102309190610418565b6040516020818303038152906040527ff82c50f1000000000000000000000000000000000000000000000000000000007bffffffffffffffffffffffffffffffffffffffffffffffffffffffff19166020820180517bffffffffffffffffffffffffffffffffffffffffffffffffffffffff838183161783525050505061034e565b50565b61034b816040516024016102c991906103bf565b6040516020818303038152906040527f41304fac000000000000000000000000000000000000000000000000000000007bffffffffffffffffffffffffffffffffffffffffffffffffffffffff19166020820180517bffffffffffffffffffffffffffffffffffffffffffffffffffffffff838183161783525050505061034e565b50565b60008151905060006a636f6e736f6c652e6c6f679050602083016000808483855afa5050505050565b600061038282610433565b61038c818561043e565b935061039c8185602086016104af565b6103a581610511565b840191505092915050565b6103b9816104a5565b82525050565b600060208201905081810360008301526103d98184610377565b905092915050565b600060408201905081810360008301526103fb8185610377565b9050818103602083015261040f8184610377565b90509392505050565b600060208201905061042d60008301846103b0565b92915050565b600081519050919050565b600082825260208201905092915050565b600061045a826104a5565b9150610465836104a5565b9250827fffffffffffffffffffffffffffffffffffffffffffffffffffffffffffffffff0382111561049a576104996104e2565b5b828201905092915050565b6000819050919050565b60005b838110156104cd5780820151818401526020810190506104b2565b838111156104dc576000848401525b50505050565b7f4e487b7100000000000000000000000000000000000000000000000000000000600052601160045260246000fd5b6000601f19601f830116905091905056fea2646970667358221220be8e41a8f0c37e12d3cb921ba2f07fb103a31149a684e0168f643001244292f764736f6c634300080400334465706c6f79696e67206120477265657465722077697468206772656574696e673a",
  "linkReferences": {},
  "deployedLinkReferences": {}
}